:020000040800F2
:10000000C80B0020D5010008DD2A0008492200089D
:10001000D92A0008890D0008712F0008000000008F
:10002000000000000000000000000000652F000834
:100030008D0D000800000000E12A0008692F00086B
:10004000EF010008EF010008EF010008EF010008D0
:10005000EF010008EF010008EF010008EF010008C0
:10006000EF010008EF010008EF010008EF010008B0
:10007000EF010008EF010008EF010008EF010008A0
:10008000EF010008EF010008EF010008EF01000890
:10009000EF010008EF010008EF010008EF01000880
:1000A000EF010008EF010008EF010008EF01000870
:1000B000EF010008EF010008EF010008EF01000860
:1000C000EF010008EF010008EF010008EF01000850
:1000D000EF010008EF010008EF010008EF01000840
:1000E000EF010008EF010008EF01000800F002F83E
:1000F00000F060F814A696E8000CB244B344DA4568
:1001000001D100F057F8BAE80F000FA696E83000CA
:10011000A5EB040504EB0607AAEB0704A7F101070A
:100120004FEA15154FEA3414A4F10104AC4201D38F
:1001300000F040F813F0010F18BFFB1A43F0010361
:1001400000F001F8DBE718470447000024470000EF
:10015000103A24BF78C878C1FAD8520724BF30C8F3
:1001600030C144BF04680C60704700007047000055
:100170000023002400250026103A28BF78C1FBD8B0
:10018000520728BF30C148BF0B607047662903F093
:100190004587642900F07A80002070471FB500F081
:1001A0007DFC04000020002103F07CFCE0601FBD0A
:1001B00010B510BD00F072FD1146FFF7EFFF02F021
:1001C000D9FE00F090FD03B4FFF7F2FF03BC00F08E
:1001D000D3FD00000948804709480047FEE7FEE7D5
:1001E000FEE7FEE7FEE7FEE7FEE7FEE7FEE7FEE7E7
:1001F00004480549054A064B704700006D2F00086A
:10020000ED000008C8050020C80B0020C80700202A
:10021000C80700200FB41CB5074B06AA7B446946EB
:100220000090059800F0EFFB0020694600F0FEFB0F
:100230001CBC5DF814FB00000D08000070B50446FE
:1002400085690068C10601D5302600E02026C00778
:1002500007D070BDD4E9012130469047206A401C88
:1002600020626D1EF6D570BD70B5044685690078B4
:10027000C00707D170BDD4E9012120209047206A32
:10028000401C20626D1EF6D570BD00002DE9F041C6
:100290000646002410687529314616A510D0AFF324
:1002A0000080002802DA404213A507E031688A077F
:1002B00001D512A502E0490704D511A5012401E0EA
:1002C000AFF3008000210A2206F1240709E0B0FB09
:1002D000F2FCB0FBF2F302FB1C00303078541846FD
:1002E000491C0028F3D123462A463046BDE8F04198
:1002F00000F01DB9000000002D0000002B000000E0
:10030000200000002DE9F0474FF0000A894604461E
:10031000C0F820A02046E1688847002876D025282C
:1003200006D0D4E901219047206A401C2062F1E701
:10033000E168204600258847C4F81CA0064600272F
:10034000C4F818A02A2E09D0304603F0A3FB38B316
:1003500004EB8708303EC8F8186019E059F8041B10
:10036000204604EB87029161E1688847012F064629
:1003700018D1E069002820DA25F020051DE0D8F822
:10038000180000EB800006EB40003038C8F8180079
:100390002046E1688847064603F07CFB0028EED142
:1003A000012F0AD02E2E08D12046E16888477F1CF5
:1003B0000646022F45F02005C4DBA069002803DAB9
:1003C000404245F00105A061E80701D025F0100585
:1003D000B6B1A6F14100192802D8203645F40065CF
:1003E0004A463146204625604D46FFF7CFFE58B1BC
:1003F000012806D0ED1D25F0070000F1080989E766
:1004000004E005F1040985E730468AE7206ABDE883
:10041000F08710B5431C02E010F8011B71B1810791
:10042000FAD14FF0013202C88C1A8C4314EAC2117F
:10043000F9D0C01A0A0603D0C01E10BDC01A10BDE4
:100440000A0401D0801E10BD0902FCD0401E10BD60
:10045000032A40F2308010F0030C00F0158011F8F0
:10046000013BBCF1020F624498BF11F801CB00F8C8
:10047000013B38BF11F8013BA2F1040298BF00F81C
:1004800001CB38BF00F8013B11F0030300F0D38229
:10049000083AC0F0088051F8043B083A51F804CB00
:1004A000A0E80810F5E7121D5CBF51F8043B40F8C6
:1004B000043BAFF30080D20724BF11F8013B11F8D1
:1004C00001CB48BF11F8012B24BF00F8013B00F815
:1004D00001CB48BF00F8012B70474FF0000200B578
:1004E000134694469646203922BFA0E80C50A0E857
:1004F0000C50B1F12001BFF4F7AF090728BFA0E805
:100500000C5048BF0CC05DF804EB890028BF40F8D0
:10051000042B08BF704748BF20F8022B11F0804F12
:1005200018BF00F8012B70477047704770472DE9DE
:10053000F0470D4699469246044600F124080168AA
:10054000880604D5E06921F01001216000E0012057
:10055000A84201DD471B00E00027A1697A1902EBE0
:100560000900081AA0612078C00602D42046FFF7CF
:1005700065FE002608E0D4E901211AF8060090473C
:10058000206A401C761C20624E45F4DB2078C006B1
:100590000AD52046FFF752FE06E0D4E901213020BB
:1005A0009047206A401C2062381EA7F10107F4DC46
:1005B00007E0D4E9012118F805009047206A401CA3
:1005C0002062281EA5F10105F3DC2046FFF74CFE52
:1005D0002078000602D50220BDE8F0870120FBE765
:1005E0002DE9FF4F0C461E464FF0FF378BB0D2E986
:1005F0000001DDF860800A908A46C1F30A5505B90A
:100600003D46002108464FF00000BAF1000F00F40B
:10061000400005DA00EB80004FF4400101EA500091
:100620004FEA9059B9F1010F00DDB9460A9850EA36
:100630004A000ED044F61050A5F2FF3545432F1462
:10064000B8F1000F1ED07542291E1EDDC9F100024F
:100650001CE0B8F1010F4FF0000001D0302103E0A1
:10066000F24305E02154401CB042FBDB304600223F
:10067000002121540B99C1F80880C1E900200FB076
:10068000BDE8F08FBD1B6D1CDEE74A4600DA69420B
:1006900006A800F08DFA06AB93E8070003AB83E8E9
:1006A000070050460A9902F019FE8DE80700A0F5F0
:1006B00000501F3800900398002D0ADD42F21F0100
:1006C0004A460844002303A90390684603F082F8D1
:1006D00009E0A0F500504A461F38002303A9039003
:1006E000684603F08CF88DE807000004000C03D086
:1006F0004FF0FF30410800E01046B8F1000F03D082
:100700000022009215461EE0751E05D400F0CAF9BD
:10071000303262556D1EF9D5B3460122084302D02E
:1007200000227F1C04E02078302801D100227F1EA7
:10073000002A099784D01DE0112D07DA00F0B2F9E4
:10074000303262556D1C50EA0102F5D1084302D0E7
:100750000098C8B10EE00021681E05E0235C625CD1
:1007600063542254401E491C8142F7DBAB46A81B50
:10077000401E0990002004F80B000B98099AC0F85D
:100780000880C0E9002B7AE711264FF0000857E7F0
:100790002DE9F04F88460446D21D22F0070191B0A2
:1007A000D1E90001CDE90A0103F060F902460B9896
:1007B000C00F01D02D2007E02068810701D52B2034
:1007C00002E0202101EAC000032A099001D0072A93
:1007D00005DB03464146204600F0AAF90BE12078EC
:1007E000800601D5E06900E00620B8F1650F81467A
:1007F00006D0B8F1660F18D0B8F1670F70D131E0AC
:100800000020B9F1110F009001DB112301E009F183
:1008100001030AAA01A90CA8FFF7E2FEDDE90C70AA
:10082000002609F10105834647E001204B46009070
:100830004FF000470AAA01A90CA8FFF7D1FEDDE995
:100840000DB00C995D46002610B909F101000D1894
:10085000B9EB050003D4C0F1FF3609F10105A5EBA2
:1008600009002BE0B9F1010F01DA4FF00109002076
:10087000B9F1110F0090484601DD112300E0034655
:100880000AAA01A90CA8FFF7ABFEDDE90C704D46E2
:1008900000268346207800070AD4AB4500DA5D467F
:1008A00001A8012D04DD411911F8011C302907D0E0
:1008B0004F4502DA17F1040F04DA012082460FE0F7
:1008C0006D1EEEE7002F02DCED1B3E4403E0781CBA
:1008D000A84200DD7D1CB81B00F1010A4FF0004763
:1008E0002078000703D4AA4501DB4FF0FF3A00212E
:1008F000B7F1004F0DF143088DF8431024D00220CA
:100900002B23002F01DA7F422D230A21021EA0F1A2
:10091000010000DC5FB197FBF1FC97FBF1F201FBFA
:100920001C7C17460CF1300C08F801CDEEE7A8F15D
:10093000010003702188090501D5452100E06521EA
:10094000A0F1010800F8011C09980FA9A1EB080704
:10095000FF1D00B10120411901EBEA70A169384483
:10096000081A401EA0612078C00602D42046FFF776
:1009700065FC099828B1D4E901219047206A401C00
:1009800020622078C00622D52046FFF757FC1EE0E3
:10099000002E04DBB34502DD01A8805D00E03020BD
:1009A000D4E901219047206A401C2062761CAAF1FC
:1009B00001005FEA000A0AD100F070F8C06801681F
:1009C000405CD4E901219047206A401C2062281E27
:1009D000A5F10105DCDC07E0D4E9012118F8010BE1
:1009E0009047206A401C2062381EA7F10107F3DC03
:1009F0002046FFF739FC032011B041E601694A1C8B
:100A000002610878704700B58FB0CDE9013100214F
:100A1000059105497944CDE9031011466846FFF771
:100A200071FC0FB000BD0000E5FFFFFF0A6802F88F
:100A3000010B0A60704710B5203AC0F00B80B1E896
:100A40001850A0E81850B1E81850A0E81850203A03
:100A5000BFF4F5AF5FEA027C24BFB1E81850A0E80C
:100A6000185044BF18C918C0BDE810405FEA827C26
:100A700024BF51F8043B40F8043B08BF7047D2073D
:100A800028BF31F8023B48BF11F8012B28BF20F8DE
:100A9000023B48BF00F8012B704700000048704738
:100AA0003800002030B5B0F10A0271F100034FEABE
:100AB000900E4EEA817EB0EB0E0061EB91014FEAA1
:100AC000101E4EEA017E10EB0E0041EB11114FEAB1
:100AD000102E4EEA016E10EB0E0041EB11214FEA91
:100AE000104E4EEA014E10EB0E0041EB1141401842
:100AF00041F100014FEAD00040EA41704FEAD101D4
:100B00004FEA810444EA907410EB800544EB010441
:100B10006D1944EB0404521BA3414FF0000348BF7E
:100B20000A3200D530BD401C41F1000130BD00004B
:100B30002DE9F0411F46044603260168072A01F407
:100B4000006004DB08B116A505E016A503E008B1B6
:100B500015A500E015A521F010002060A069C01EB9
:100B6000A0610FB1401EA0612046FFF767FB4FB1A7
:100B7000D4E9012138469047206A401C2062C01CFD
:100B8000206206E0206AFAE7D4E9012115F8010B9A
:100B90009047761EF8D22046FFF766FBBDE8F0814D
:100BA0004E414E006E616E00494E4600696E660011
:100BB0002DE9F047814616468AB0354878440DC87D
:100BC0008DE80D0032487844801C03AC0DC884E8E1
:100BD0000D0041F69B300844372190FBF1F290FB69
:100BE000F1F5A5F1800501FB12041B3C02D564421E
:100BF000012000E00020DFF898A080460027FA449A
:100C0000AAF1BE0A0EE0E0070AD03246684607EBBA
:100C1000470101230AEB810102F0F1FD8DE8070095
:100C200064107F1C002CEED1194F7F44AE3F19E0B9
:100C3000E80715D007EB04100DF1180A90E80E0034
:100C40008AE80E00C068F04201D198190890324637
:100C5000012306A903A802F0D2FD03AB83E8070035
:100C60006D10641C002DE3D14FF00103324669463C
:100C7000B8F1000F03A802D002F0ACFD01E002F0D1
:100C8000BEFDC9E90001C9F808200AB0BDE8F08737
:100C9000DC34000000487047180000207546FFF75C
:100CA000F9FFAE4605006946534620F00700854629
:100CB00018B020B5FFF79CFABDE820404FF00006C1
:100CC0004FF000074FF000084FF0000BAC46ACE8C7
:100CD000C009ACE8C009ACE8C009ACE8C00921F023
:100CE00007018D46704710B50446AFF300802046DB
:100CF000BDE81040FFF767BA4FF0013C50F8042BF5
:100D000051F8043B9A4221D1A2EB0C03934313EA1E
:100D1000CC1317D150F8042B51F8043B9A4215D14B
:100D2000A2EB0C03934313EACC130BD150F8042B22
:100D300051F8043B9A4209D1A2EB0C03934313EA06
:100D4000CC13DBD04FF00000704700BFD01A01BABF
:100D5000B1FA81F101F0180122FA01F0CB40DBB2C7
:100D6000C0B2C01AC1F120012CFA01F3D11A91438B
:100D700011EAC311E6D1704701491820ABBEFEE766
:100D80002600020070470000FEE7000070470000E8
:100D9000B0B5044600F018F9054640F20000C2F272
:100DA00000000078611C18BF044400BF00F00CF97B
:100DB000401BA042FAD3B0BD2DE9F04F82B00E68BF
:100DC000002E00F0FD8041F20042C4F20102042333
:100DD00040F2004E904208BF03234FF6FF7CC4F25E
:100DE000010E009300240123C1F2100C4FF0000A01
:100DF0004FF000094BE000BF41F20002C4F20102D3
:100E0000009F904208BF022704F00C030F229A4073
:100E10002BEA020207FA03F34FEA9A051A4346F84F
:100E200025204E6840F20C45F202DEF8082054BF3F
:100E300022EA080242EA0802C4F20105CEF80820BC
:100E40002A68B30254BF22EA080242EA08022A6072
:100E5000B303DEF8042054BF22EA080242EA080283
:100E6000F303CEF80420DEF800204FF0010354BF56
:100E700022EA080242EA0802CEF800200E680AF1CF
:100E8000010A36FA0AF204F1040400F0998003FA28
:100E90000AFB16EA0B08F1D04E68664512DC122EEA
:100EA00056D8DFE806F0350B4D4955555555555583
:100EB0005555555555555545510000BFD1F80C9025
:100EC00046E000BF4FF6FF72C1F2210296420FDCEE
:100ED0000022C1F2110296421AD00022C1F212027F
:100EE000964215D00022C1F22102964210D02FE086
:100EF0000022C1F2220296420AD00022C1F231023F
:100F0000964205D00022C1F23202964220D100BFA3
:100F10008A684AB1012A14BFC0F814B0C0F810B0F2
:100F20004FF0080914E000BF4FF0040910E000BFC3
:100F3000CA6802F104090BE04FF0000908E000BFA5
:100F4000CA6802F1080903E0CA6802F10C0900BF8F
:100F500002462646B8F5807F24BF0432203E17683B
:100F60000F25B54027EA050509FA06F63543156051
:100F7000CA79D2067FF582AF41F21803C4F20203A8
:100F80001A68AEF57E7642F001021A601A6802F025
:100F900001020192019A2AF0030256F802B040F6CB
:100FA0000002C4F20102904208D040F60042C4F2AE
:100FB000010290427FF420AF012725E7002723E7B5
:100FC00002B0BDE8F08F000040F2C050C2F2000055
:100FD00000687047002804BF01207047F0B581B059
:100FE000044690F83D0028B9002084F83C002046D3
:100FF00000F090FB242084F83D002068016821F077
:1010000001010160016841F400410160016821F4BF
:101010000041016000F05EFD636848F2A16CC0F21F
:10102000010C40F60011C0F23D0163453CBF48F29F
:101030008041C0F21E01884202D2012001B0F0BD01
:101040004DF68361C4F21B31A0FB01122168970C9D
:10105000D1F804E04FF496762EF03F0545EA92452C
:101060004D60774348F638160D6AC0F24106A7FB7B
:10107000067625F03F07634538BF960C721C3A434D
:101080000A62CA6948F2A0664CF6FF77C0F2010610
:10109000B34222EA07020BD801385B00B0FBF3F041
:1010A00001306FF31F30042898BF04201BE000BFFD
:1010B000A768013857B119277B43B0FBF3F0013023
:1010C0006FF31F3070B100F5804007E003EB43037E
:1010D000B0FBF3F001306FF31F3018B100F50040A2
:1010E00001E000BF01201043C8610868D4E907236C
:1010F00020F0C000104318430860886848F2FF32AF
:1011000004F10C0790438CCF18431043A669886004
:10111000C86820F0FF0038433043C860086840F0DA
:101120000100086000202021206484F83D10206325
:1011300084F83E0001B0F0BD2DE9F04784B00446CC
:1011400000201F46164689460290FFF73DFF94F89F
:101150003D10202924D10546206800BF81698907F8
:101160001AD5FFF731FF411B20681A29F6D3816990
:101170008907F3D500202021206384F83D1084F8EE
:101180003E00216C41F02001216484F83C000220E3
:1011900004B0BDE8F08700BF94F83C10012903D1EA
:1011A000022004B0BDE8F087012184F83C100168FA
:1011B000C90703D1016841F0010101600168DDF850
:1011C000308021F400610160222184F83D1010215B
:1011D00084F83E100021216466626785618D0227D4
:1011E000C0F201072185A7F10211E162E16A0268FC
:1011F00011F5803F42F48062026018BF01293DD1A1
:10120000016841F48071016020464FF00111002215
:101210004346009501F078F850B120680068C00599
:1012200044BF4FF400702064012004B0BDE8F08793
:101230002069B0F5804F27D149F00100C0B2216884
:1012400042460861204639462B4601F043F9002802
:10125000EAD1208D022861D0012849D0002840F031
:101260007380002003902068416903918169039194
:101270000399016841F40071016071E00829BFD051
:10128000216B1129BCD0BFE7062000EAD9162068DF
:1012900006F1F0010161B91D204642462B4601F0DE
:1012A00019F90028C0D120685FFA89F10161204650
:1012B000394642462B4601F00DF90028B4D10020F2
:1012C000039020680022416943460391816903919C
:1012D0000399016841F48071016020464FF00111CB
:1012E000009501F011F8002897D146F0F100A6E72B
:1012F0002068016821F480610160EFF3108072B60C
:10130000002003902068416903918169039103994A
:10131000016841F40071016062B621E02068016853
:1013200041F400610160EFF3108072B60020039079
:10133000206841690391816903910399016821F44F
:101340008061016062B60BE02068016841F4806151
:101350000160002103914169039180690390039822
:10136000208D002800F0CA8040F210094BF2895A03
:101370000237C2F20009C1F2F84A23260EE000BF8C
:1013800010690870606A218D01306062481E2085F6
:10139000618D01396185010400F0B08080B20328BD
:1013A0000CD802282CD001284AD1204641462A4692
:1013B00001F0FCF8002800F09C8035E7204641460B
:1013C0002A4601F0F3F800287FF42EAF2068616A06
:1013D00000690870606A2268411C208D61620138D2
:1013E0002085638D013B638553695B07D3D580B24C
:1013F0000328C5D1106820F480601060C0E700BFEA
:101400002046394600224346009500F07DFF002823
:101410007FF40AAFEFF3108072B62068616A026849
:1014200042F40072026000690870606A218D013028
:101430006062481E2085608D0138608562B658E084
:101440002046394600224346009500F05DFF002803
:101450007FF4EAAE2068016821F480610160EFF357
:10146000108072B62068616A00690870606A218D18
:101470000130013960622185618D01396185D9F8BA
:101480000010C908A1FB0A12110A714302910299C6
:1014900001390291029900293CD021684A6952071A
:1014A00017D4029A013A0292029A9AB34A695207F1
:1014B0000FD4029A013A0292029A5AB34A69520729
:1014C00007D4029A013A0292029A1AB34A69520761
:1014D000DDD50A6842F400720A6009690170606A29
:1014E000218D01306062481E2085608D0138608545
:1014F00062B62068616A006943E700BF202084F873
:101500003D00002084F83E0084F83C0004B0BDE8B3
:10151000F08700BF00202021206384F83D1084F86C
:101520003E00216C41F02001216462B684F83C0049
:10153000012004B0BDE8F0872DE9F04383B01E46DA
:10154000174689460446FFF73FFD94F83D102029D1
:1015500024D10546206800BF816989071AD5FFF7A5
:1015600033FD411B20681A29F6D381698907F3D519
:1015700000202021206384F83D1084F83E00216C77
:1015800041F02001216484F83C00022003B0BDE852
:10159000F08300BF94F83C10012903D1022003B06E
:1015A000BDE8F083012184F83C100168C90703D12C
:1015B000016841F001010160016840F2020821F474
:1015C00000610160212184F83D10102184F83E1053
:1015D0000021216467626685618DC0F20108218562
:1015E000A8F10211E162E16A0A9E11F5803F18BF7D
:1015F00001291DD1016841F48071016020464FF03E
:10160000011100223346009500F07EFE50B12068A3
:101610000068C00544BF4FF400702064012003B08F
:10162000BDE8F0832069B0F5804F07D1FE2015E0BA
:101630000829DFD0216B1229DCD0DFE7062000EA81
:10164000D9102168F030086108F1060120463246C1
:101650002B4600F03FFF0028E0D1FF20216800EA80
:10166000090008612046414632462B4600F032FF11
:101670000028D3D10020029020684169029180693E
:101680000290029806E000BF204631462A4600F04C
:10169000DDFD18BB208D68B3204631462A4600F098
:1016A000CDFFD8B9606A2168024612F8013B0B6190
:1016B0006262628D013A6285228D531E23854F69D5
:1016C0007F07E1D51B04DFD0437802300B616062F5
:1016D000608D01386085901E2085D5E7206C042838
:1016E0009CD12068016841F400710160012003B0C1
:1016F000BDE8F0832068016841F40071016020209A
:1017000084F83D00002084F83E0084F83C0003B0DB
:10171000BDE8F08310B586B0006845F60001C4F25C
:10172000000188424FF00001CDE90411CDE902111A
:1017300028D045F20041C4F20001884246D141F26E
:101740001804C4F20204206802A940F008002060D6
:10175000206800F0080001900198C020029012203B
:1017600003900320059040F60040C4F20100FFF70B
:1017700023FB606840F400106060606800F40010B3
:1017800022E000BF41F21804C4F20204206802A95A
:1017900040F008002060206800F0080001900198E7
:1017A0004FF440600290122003900320059040F611
:1017B0000040C4F20100FFF7FFFA606840F48000C7
:1017C0006060606800F480000190019806B010BD70
:1017D00040F2000040F2C051C2F20000C2F200012B
:1017E00000780A68104408607047000080B542F233
:1017F0000000C4F20200016841F010010160032002
:1018000000F07AF80F2000F005F800F027F800202B
:1018100080BD000070B540F20006C2F2000640F242
:1018200010013278C2F200014FF47A730968B3FBF9
:10183000F2F20446B1FBF2F1084600F073FB0F2C04
:101840004FF0010508D838B94FF0FF30214600228B
:10185000002500F025F87460284670BD82B041F282
:101860001800C4F202000168022241F00101016087
:10187000016801F0010101910199416841F0805135
:101880004160406800F08050009000980420C4F24D
:101890000100016862F31A61016002B07047000044
:1018A00010B54EF60C5CCEF2000CDCF80030C3F341
:1018B000022E8EF00704042C28BF0424BEF103037B
:1018C0004FF0FF3E0EFA04F438BF0023A1439940C5
:1018D0000EFA03F39A43114300F00F0200F1604344
:1018E0000901043A03F564436244002848BF02F149
:1018F0000C03197010BD00004EF60C51CEF2000121
:101900000A684FF6FF031A4060F30A2242F0806033
:1019100040F0FD7008607047002804BF0120704748
:101920002DE9F04381B042F20008C4F202080446F7
:10193000D8F800000D4600F0070081420CD9D8F815
:10194000000020F007002843C8F80000D8F8000085
:1019500000F00700A8426CD1206841F20409810719
:10196000C4F2020917D5410705D5D9F8001041F492
:10197000E061C9F80010010705D5D9F8001041F45D
:101980006051C9F80010D9F80010A26821F0F001E8
:101990001143C9F80010C00742D1D8F8000000F088
:1019A000070085420CD2D8F8000020F00700284339
:1019B000C8F80000D8F8000000F00700A84238D1AD
:1019C0002068410707D5D9F80010E26821F4E061EA
:1019D0001143C9F80010000708D5D9F800002169A3
:1019E00020F4605040EAC100C9F80000D9F8002096
:1019F00002F00C00082841F20020C0F27A004DD11C
:101A000044F63A03C2F38341C0F60003595CD203A3
:101A100038D440F60010C0F23D0048433EE000BF1D
:101A2000606859F8041C022808D0012826D18903CF
:101A300006D4012001B0BDE8F08300BF8901F8D5CC
:101A4000D9F8001021F003010843C9F80000FFF79E
:101A5000BBFA064641F28837D9F80000616800F009
:101A60000C00B0EB810F98D0FFF7AEFA801BB842A4
:101A7000F2D9032001B0BDE8F08300BF8907D8D5B3
:101A8000DEE700BFD9F8002044F63803C2F3404235
:101A9000C0F600039A5C4843B0FBF2F0D9F800109E
:101AA00044F2B402C1F30311C0F60002515C40F2EB
:101AB000100220FA01F140F20400C2F200000068B6
:101AC000C2F200021160FFF7A5FE002001B0BDE8E0
:101AD000F083000040F2100041F20401C2F2000065
:101AE000C4F202010068096844F2C402C1F3022191
:101AF000C0F60002515CC8407047000040F2100080
:101B000041F20401C2F20000C4F202010068096857
:101B100044F2C402C1F3C221C0F60002515CC840C5
:101B200070470000002804BF012070472DE9F041F4
:101B300082B00446007841F20006C007C4F20206F3
:101B40000CD0706800F00C00042840F081803068F0
:101B5000800303D56068002800F046812078800764
:101B60001BD5706810F00C0F09D0706800F00C00E5
:101B7000082840F087807068C00300F183803068D7
:101B8000800703D52069012840F02E813068616903
:101B900020F0F80040EAC10030602078000713D43C
:101BA000207840072CD4E569002D00F0188170687A
:101BB00000F00C00082840F0A780012D40F00481BF
:101BC000012002B0BDE8F081A069002800F0848007
:101BD0000020C4F242200121C0F88014FFF7F4F97C
:101BE000054600BF706A800700F1B280FFF7ECF98C
:101BF000401B0228F6D9032002B0BDE8F08100BFE7
:101C0000F0695FEAC00808D4F06940F08050F061E4
:101C1000F06900F080500090009847F20007C4F28D
:101C200000073868C00549D4386840F480703860CF
:101C3000FFF7CAF9054600BF3868C0053ED4FFF774
:101C4000C3F9401B6428F7D9032002B0BDE8F08136
:101C5000706800F00C00082803D17068C0033FF5DD
:101C600076AF61683068002900F00C81B1F5A02FD3
:101C700000F00081B1F5803F40F01A8140F48030DF
:101C80001CE100BF2069002840F20000C4F242209D
:101C900000F0888001210160FFF796F9054600BF3A
:101CA000306880073FF572AFFFF78EF9401B0228BE
:101CB000F6D9032002B0BDE8F08100BFE168306AC8
:101CC000002900F09D80052900F09280012940F054
:101CD000AF8040F00100B1E00020C4F242200021BA
:101CE000C0F88014FFF770F9054600BF706A8007DE
:101CF0007FF556AFFFF768F9401B0228F6D903209D
:101D000002B0BDE8F08100BF0027C4F242270020E6
:101D10003866FFF759F9022D05460DD1306880016C
:101D200040F1DE80FFF750F9401B02284FF003001E
:101D3000F4D902B0BDE8F081306880014FD5FFF7DB
:101D400043F9401B02284FF00300F5D9F1E700BF2B
:101D500040F21000C2F20000006844F6D351C1F214
:101D60006201A0FB0101480A019000BF00BF019879
:101D7000411E002801913FF413AF00BF0198411E9E
:101D8000002801913FF40CAF00BF0198411E0028CC
:101D900001913FF405AF00BF0198411E0028019159
:101DA000E4D1FDE600210160FFF70EF9054600BF12
:101DB000306880077FF5F1AEFFF706F9401B022877
:101DC0004FF00300F4D9B4E77068216A00F4803260
:101DD0008A4209D1616A00F47010884204D100205F
:101DE00002B0BDE8F08100BF012002B0BDE8F08183
:101DF00040F004003062306A40F001001EE000BF95
:101E000020F001003062306A20F004003062FFF7F9
:101E1000DBF8054641F28837306A800720D5FFF7A6
:101E2000D3F8401BB8424FF00300F5D981E700BF5B
:101E300020F001003062306A20F004003062FFF7C9
:101E4000C3F8054641F28837306A800708D4FFF7A7
:101E5000BBF8401BB842F7D9032002B0BDE8F081BF
:101E6000B8F1000F3FF59FAEF06920F08050F061AF
:101E700099E600BF40F480203060306840F4803044
:101E80001CE000BF20F480303060306820F48020F7
:101E90003060FFF799F80546306880037FF55EAE45
:101EA000FFF792F8401B64284FF00300F4D940E795
:101EB00020F480303060306820F480203060FFF7FC
:101EC00083F80546306880033FF548AEFFF77CF89D
:101ED000401B6428F6D9032002B0BDE8F08100BFA2
:101EE000206AB0F5803F05D17168A26821F4003105
:101EF000114371607168626A21F4741111430843DF
:101F0000706001203866FFF75FF804463068800192
:101F10003FF565AFFFF758F8001B02284FF00300AC
:101F2000F4D906E7411E0020B0EB116F1CBF012061
:101F300070474EF21002CEF2000251604EF623516D
:101F4000CEF20001F0230B70072190601160704702
:101F5000002804BF0120704710B5044690F84100E6
:101F600028B9002084F84000204600F063F82420BF
:101F700084F841002068D4E90212C36823F40053B6
:101F8000C360036923F440531A430261D4E9042374
:101F90001143C268194341F20C639A431143C16073
:101FA0004169A26921F44071114343F60002C4F271
:101FB00001029042416103D0FFF78CFD02E000BFB7
:101FC000FFF79CFDD4E90023192148439900B0FB99
:101FD000F1F048F21F5CC5F2EB1CA0FB0C314FF690
:101FE0009C734909C0F6FF7301FB0300322303EB26
:101FF0000010A0FB0C03F02000EA531000EB0110CE
:10200000C3F34311084490601069202120F49040EC
:102010001061506920F02A005061D06840F40050EF
:10202000D0600020606484F8411084F8421060633E
:1020300010BD000070B586B040F60004C4F2010483
:10204000006804F54051002688420596CDE90366F4
:10205000029601D006B070BD41F21800C4F2020031
:10206000016802AD41F480410160016801F48041E2
:1020700001910199016841F004010160006829465D
:1020800000F00400019001984FF4007002900220CB
:102090000390032005902046FEF78EFE4FF48060EB
:1020A000CDE90206204629460496FEF785FE06B0D5
:1020B00070BD00002DE9F04381B0044690F8410066
:1020C000202809D100294FF0010018BF002A07D1AC
:1020D00001B0BDE8F08300BF022001B0BDE8F0838D
:1020E0000020606421201D460E4684F841001746FA
:1020F000FEF76AFFA784E784A1688146B1F5805F97
:1021000002D1206900285DD037460020E28C21688A
:10211000002A5DD06A1C24D0002D4AD0804600BF22
:102120000868000608D4FEF74FFFA0EB0900A8429C
:102130007AD82168C868F3E717B117F8010B04E0F3
:1021400038F8020B00276FF35F204860E08C0138FD
:10215000E084E08C0028E3D13AE000BF0A68120670
:1021600009D40A68120606D40A6812065CBF0A6817
:102170005FEA0262F2D51FB117F8012B05E000BF3C
:1021800030F8022B00276FF35F224A60E28C013A9D
:10219000E284E28C002AE4D11AE000BF30F8022B7E
:1021A00000276FF35F224A60E28C013AE284E28CFE
:1021B00072B10A68120635D5002FEFD017F8012B3F
:1021C000F1E700BF00273046E28C2168002AA1D148
:1021D000086840061ED42DB3681C14D10868400658
:1021E0002AD40868400627D40868400624D4086822
:1021F00040064FF00000F1D50DE000BF2068C16837
:102200000068400618D4FEF7DFFEA0EB0900A842E4
:10221000F4D909E00020202184F8411001B0BDE884
:10222000F08300BFFEF7D0FE0320202184F8411088
:1022300001B0BDE8F08300BF0020202184F84110E8
:1022400001B0BDE8F0830000FEE7000070B5036850
:10225000044653F8140F400711D40E46481C29D0E9
:1022600086BB00BF1868400527D4FEF7ADFE236883
:1022700053F8140F400737D518684007F2D50020EF
:1022800070BD00BF18684007F9D41868400514D421
:1022900018684007F3D4186840050ED41868400742
:1022A000EDD41868400508D4186840074FF00000C6
:1022B00048BF70BD18684005E4D56FF480601860B1
:1022C000042012E0154603E053F8140F4007D6D45B
:1022D00018684005F1D4FEF777FE401B2368B04232
:1022E000F2D958694007EFD4202000212022216331
:1022F00084F83D2084F83E10226C104320640120B5
:1023000084F83C1070BD00002DE9F04105460068DE
:102310001E46144601F47F0201338FB242D0DDF82D
:102320001880B2F5803F40F0878040693840C01B7C
:10233000B0FA80F04009844240F0C8804EB924E0F1
:1023400040693840C01BB0FA80F04009844240F038
:10235000BD80FEF739FEA0EB08012868B142EFD935
:1023600041693940C91BB1FA81F149098C42E7D171
:102370009BE000BF40693840C01BB0FA80F04009C4
:1023800084424FF0000040F0A280FEF71DFE286856
:1023900041693940C91BB1FA81F149098C42E9D13F
:1023A00083E000BFB2F5803F24D100BF41693940CE
:1023B000C91BB1FA81F149098C4240F0878041691B
:1023C0003940C91BB1FA81F149098C4240F07E8045
:1023D00041693940C91BB1FA81F149098C4275D173
:1023E00041693940C91BB1FA81F149098C42DDD0FC
:1023F0006CE000BF81693940C91BB1FA81F149091C
:102400008C4263D181693940C91BB1FA81F1490914
:102410008C425BD181693940C91BB1FA81F149090C
:102420008C4253D181693940C91BB1FA81F1490904
:102430008C42DFD04AE000BF80693840C01BB0FA50
:1024400080F04009844241D146B923E08069384098
:10245000C01BB0FA80F04009844237D1FEF7B4FDCA
:10246000A0EB08012868B142F0D981693940C91B45
:10247000B1FA81F149098C42E8D116E0806938400F
:10248000C01BB0FA80F0400984424FF0000018BF32
:10249000BDE8F081FEF798FD286881693940C91BC5
:1024A000B1FA81F149098C42E8D10020202128634A
:1024B00085F83D1085F83E00296C41F02001296423
:1024C00085F83C000120BDE8F08100BF0020BDE898
:1024D000F0810000F0B581B0044600681D464369F4
:1024E0008FB203EA0701B94202D1002001B0F0BD6A
:1024F0004169164601323CD0490512D47EB300BF73
:10250000FEF762FD411B2068B14203D941693940A1
:10251000B9422BD141693940B942E6D041694905F8
:10252000EED5016841F4007101606FF48061416192
:10253000042000212022216384F83D2084F83E10ED
:10254000226C1043206484F83C10012001B0F0BDDF
:1025500041693940B942C8D041694905E1D4FEF723
:1025600033FD206841693940B942F1D02020E0E7CD
:1025700041694905D5D441693940B942B5D041696D
:102580004905CED441693940B942AED041694905C7
:10259000C7D441693940B942A7D041694905C0D47F
:1025A00041693940B942E3D19FE7000070B5044664
:1025B0000068154650F8143F5A063DD40E4629B916
:1025C00026E000BF50F8141F490635D40168C9063B
:1025D00021D4FEF7F9FC411B2068B142F2D94169D0
:1025E0004906EFD400202021206384F83D1084F8B0
:1025F0003E00206C40F0200018E000BFFEF7E4FC35
:10260000206850F8141F4906ECD50168490613D418
:102610000168C906F2D56FF0100101600020202189
:10262000206384F83D1084F83E00206C2064002074
:1026300084F83C00012070BD002070BD70B50368B7
:10264000044653F8140F000611D40E46481C29D036
:1026500086BB00BF1868400527D4FEF7B5FC236889
:1026600053F8140F000637D518680006F2D500207D
:1026700070BD00BF18680006F9D41868400514D46E
:1026800018680006F3D4186840050ED418680006D0
:10269000EDD41868400508D4186800064FF0000013
:1026A00048BF70BD18684005E4D56FF480601860BD
:1026B000042012E0154603E053F8140F0006D6D4A8
:1026C00018684005F1D4FEF77FFC401B2368B04238
:1026D000F2D958690006EFD420200021202221637E
:1026E00084F83D2084F83E10226C104320640120C1
:1026F00084F83C1070BD0000F0B583B040F27C055A
:10270000C2F20005C5E9020144F20601ADF80A1063
:102710004FF0FF340DF10A02AE210223009402268D
:10272000FEF70AFF0A20FEF733FB0621A868ADF882
:102730000A100DF10A02AE2102230094FEF7FCFEFE
:102740000A20FEF725FBA86807270DF10A02AE2133
:1027500001238DF80A700094FEF7EEFEA8680DF1D3
:102760000902AE2101230094FEF7E6FC9DF8090062
:102770000DF10A0200F0E300011DA8688DF80B10AE
:10278000AE2102238DF80A700094FEF7D5FEA868EA
:102790000DF10A02AE2101238DF80A700094FEF7B4
:1027A000CBFEA8680DF10902AE2101230094FEF7CB
:1027B000C3FC9DF809000DF10A0240F00301A8686E
:1027C0008DF80B10AE2102238DF80A700094FEF7ED
:1027D000B3FE40F60F70A5F801004FF60971A86826
:1027E000ADF80A100DF10A02AE2102230094FEF7A3
:1027F000A3FE0320032700F00DF9A8680DF10A02DB
:10280000AE210223ADF80A600094FEF795FE042184
:10281000A868ADF80A100DF10A02AE210223009457
:10282000FEF78AFEA8680DF10A02AE210223ADF878
:102830000A700094FEF780FE6420FEF7A9FA03B048
:10284000F0BD000070B592B002AC20464021FDF70B
:1028500044FE40F27C05C2F200050521A8688DF80F
:1028600007104FF0FF360DF10702AE21012300964D
:10287000FEF762FEA868AE21224640230096FEF7CE
:102880005BFCBDF80800BDF80A1000BA000CA88275
:1028900008BABDF80C10000CA88608BABDF80E10D6
:1028A000000CE88208BABDF81010000CE88608BADF
:1028B000BDF81210000C288308BABDF81410000CE3
:1028C000288708BABDF81610000C688308BABDF84E
:1028D0001810000C688708BABDF81A10000CA883FD
:1028E00008BABDF81C10000CA88708BABDF81E1065
:1028F000000CE88308BABDF82010000CE88708BA7D
:10290000BDF82210000C288408BABDF82410000C71
:10291000A5F8400008BABDF82610000C688408BA73
:10292000BDF82810000CA5F8420008BABDF82A101E
:10293000000CA88408BABDF82C10000CA5F84400BF
:1029400008BABDF82E10000CE88408BABDF83010A3
:10295000000CA5F8460008BABDF83210000C288516
:1029600008BABDF83410000CA5F8480008BABDF844
:102970003610000C688508BABDF83810000CA5F8B0
:102980004A0008BABDF83A10000CA88508BABDF88C
:102990003C10000CA5F84C0008BABDF83E10000C25
:1029A000E88508BABDF84010000CA5F84E0008BA3A
:1029B000BDF84210000C288608BABDF84410000C7F
:1029C000A5F8500008BABDF84610000C688608BA91
:1029D000000CA5F8520012B070BD000080B582B0A6
:1029E00040F27C02C2F200025070917041EA001184
:1029F00009208DF8060090688DF807104FF0FF3C15
:102A00000DF10602AE210223CDF800C0FEF794FDC1
:102A100002B080BDF0B585B040F27C05C2F2000581
:102A200004462870A86806274FF0FF360DF10B0208
:102A3000AE2101238DF80B700096FEF77DFDA8688E
:102A40000DF10A02AE2101230096FEF775FBE21E8E
:102A50009DF80A00B2FA82F204F00701520900F070
:102A6000F00041EAC2010144A8688DF80D1003AAE4
:102A7000AE2102238DF80C700096FEF75DFD2878DC
:102A800002280BD0032817D144F20101A868ADF841
:102A90000E104FF0FF370DF10E0215E048F2010164
:102AA000A868ADF8101004AAAE2102230096FEF724
:102AB00043FD05B0F0BD00BFA86801214FF0FF370E
:102AC0000DF11202ADF81210AE2102230097FEF7AD
:102AD00033FD05B0F0BD0000FEE70000FEE700009A
:102AE0007047000080B540F2D000C2F200004FF401
:102AF0008061FDF7F2FCBDE8804000F0E1B9000024
:102B000040F27802C2F2000210805180704700004B
:102B100070B582B064206425FEF73AF940F2D044E3
:102B20004FF42E40C2F20004ADF806000DF106028B
:102B30002046782102230095FEF7FEFC4FF4554015
:102B4000ADF806000DF1060220467821022300951B
:102B5000FEF7F2FC4FF40040ADF806000DF106025E
:102B60002046782102230095FEF7E6FC4FF428402A
:102B7000ADF806000DF106022046782102230095EB
:102B8000FEF7DAFC4FF47C50ADF806000DF10602BA
:102B90002046782102230095FEF7CEFC4FF45340E7
:102BA000ADF806000DF106022046782102230095BB
:102BB000FEF7C2FC0020ADF806000DF1060220462B
:102BC000782102230095FEF7B7FC4FF480460DF103
:102BD0000602204678210223ADF806600095FEF734
:102BE000ABFC4FF42D40ADF806000DF10602204677
:102BF000782102230095FEF79FFC4FF40B40ADF8BF
:102C000006000DF106022046782102230095FEF70A
:102C100093FC4FF42140ADF806000DF1060220466A
:102C2000782102230095FEF787FC4FF44840ADF869
:102C300006000DF106022046782102230095FEF7DA
:102C40007BFC4FF45A40ADF806000DF10602204619
:102C5000782102230095FEF76FFC4FF49050ADF8F9
:102C600006000DF106022046782102230095FEF7AA
:102C700063FC4FF40140ADF806000DF1060220465A
:102C8000782102230095FEF757FC4FF44F40ADF832
:102C900006000DF106022046782102230095FEF77A
:102CA0004BFC4FF45940ADF806000DF106022046EA
:102CB000782102230095FEF73FFC4FF47140ADF8F8
:102CC00006000DF106022046782102230095FEF74A
:102CD00033FC4FF45B40ADF806000DF106022046D0
:102CE000782102230095FEF727FC0DF1060220460D
:102CF00078210223ADF806600095FEF71DFC4FF425
:102D00002440ADF806000DF106022046782102238A
:102D10000095FEF711FC4FF42640ADF806000DF1CA
:102D200006022046782102230095FEF705FC4FF4A9
:102D30002F40ADF806000DF106022046782102234F
:102D40000095FEF7F9FB40F2D000C2F200004FF40C
:102D50008061FDF7C2FB00F0B3F802B070BD000067
:102D60002DE9F04F85B0A0F17F0313F15F0F0492BE
:102D7000C0F08E8040F278074C78C2F200070B78E2
:102D8000B7F800E0002C7CD0002B79D02038B7F8C1
:102D900002C040F2D00501900EF102024FF000088F
:102DA000C2F2000518460291CDF800C005E000BF50
:102DB000002008F10108A04563D20028F8D0AB46F6
:102DC00008EB0C05EFB23F2F02D95D46F1E700BFDB
:102DD000019B4868634300EB43004FF4607303EAD0
:102DE000051C05F00703012707FA03F4E34330F855
:102DF000180003930B784FF000094FF00F0A5D465F
:102E00000AE000BF47EA040105F80B1009F10109C7
:102E10009945AAF1010A2DD209EB0E0120FA0AF711
:102E2000FF0749B210D00029F0D402EB090149B2E2
:102E30000029EBD44CEA010B049915F80B7000291A
:102E4000E0D103993940DFE70029DFD402EB090123
:102E500049B20029DAD44CEA0107049EE95D2EB19B
:102E60002646039C2140344601E000BF2143E9553A
:102E7000CCE700BF0299DDF800C04C78184698E70F
:102E80000023D8B240F278017044C2F200010880F9
:102E900005B0BDE8F08F00000378002B08BF704735
:102EA00070B514460D46461ED8B229462246FFF795
:102EB00057FFB3780136002BF6D1BDE8704070475C
:102EC0002DE9F04FA3B040F2D000C2F200000DF1A6
:102ED0000B0540F2D047A0F1800405F101096426FA
:102EE000C2F200074FF4805B4FF040084FF0000A39
:102EF00000208DF80B004AF0B0008DF80C00384629
:102F000078212A4602230096FEF716FB4FF4007044
:102F1000ADF80B00384678212A4602230096FEF7CA
:102F20000BFB384678212A460223ADF80BB00096F9
:102F3000FEF702FB80344846214680228DF80B8044
:102F4000FDF786FA384678212A4681230096FEF757
:102F5000F3FA0AF1010ABAF1080FC9D123B0BDE8AA
:102F6000F08F000070470000FEF732BC7047000091
:102F7000FEE7000098B0FEF739FC00240120CDE9FF
:102F80000644CDE90444019005904FF4E0104FF45D
:102F9000803102250A9001A8CDE90214CDE908513B
:102FA000FEF7C0FD20B1EFF3108072B6FEE700BF60
:102FB0000F20CDE913054FF48060CDE9160413A866
:102FC00002211594FEF7A8FC20B1EFF3108072B631
:102FD000FEE700BF41F21800C4F20200016845F2AA
:102FE000004441F020010160016848F2A06601F050
:102FF0002001019101990168C4F2000441F0080127
:1030000001600168C0F2010601F008010191019917
:103010000168002541F00401016000684FF4804719
:1030200000F004000190019840F2D040C2F200008C
:10303000C0E90046C0E90255C0E90475C0E906557B
:103040000562FDF7C7FF28B1EFF3108072B600BF2D
:10305000FEE700BF40F2245004F58061C2F2000098
:10306000C0E90016C0E90255C0E90475C0E906557B
:103070000562FDF7AFFF28B1EFF3108072B600BF15
:10308000FEE700BF40F2785004F56441C2F2000050
:1030900000230C274FF4E13280E80E00C0E903332F
:1030A000C0E90573C361FEF753FF28B1EFF3108049
:1030B00072B600BFFEE700BFFFF72AFDFFF712FD63
:1030C0000F200021FFF71CFD40F2080177A0C2F29B
:1030D00000010122FFF7E0FEFFF7F2FE40F224506C
:1030E00040F27851C2F20000C2F20001FFF704FB87
:1030F0000320FFF78FFC0F200F21FFF76FFC4FF429
:103100007A70FDF745FEFFF7EDFC40F2900B40F2C0
:10311000B005C2F2000BC2F2000513AF0DF1380882
:103120000DF10409FFF78EFBBBF800002988BBF8FE
:1031300002206B8810441944BBF80420AB8810446B
:103140001944BBF80620EB8810441944BBF808204A
:103150002B8910441944BBF80A206B891044194488
:10316000BBF80C20AB8910441944BBF80E20EB8946
:1031700010441944BBF810202B8A10441944BBF8A2
:1031800012206B8A10441944BBF81420AB8A1044F7
:103190001944BBF81620EB8A10441944BBF81820D8
:1031A0002B8B10441944BBF81A206B8B1044194424
:1031B000BBF81C20AB8B10441944BBF81E20EB8BD2
:1031C0008418C818000900F0E1FD0646012000EB54
:1031D000141000F0DBFD0146304600F0E1FC002158
:1031E000C4F2C82100F04EFE0021C4F2C62182467E
:1031F00000F0ADFC002100281CBF40F2000AC4F220
:10320000C62A5046C4F28C2100F0B6FC0028C4F354
:103210004E1041F27B4101FB00F04FEA50404FF06D
:10322000320101FB00F0C0EB141000F1460082B245
:10323000384622A11CBF40F2000AC4F28C2AFCF7D7
:10324000E9FF504600F04AFC02460B4640461FA1EB
:10325000FCF7E0FFFFF746FC0A201421FFF750FCC3
:1032600040F20804C2F20004384621460122FFF76A
:1032700013FE0A202821FFF743FC40462146012285
:10328000FFF70AFEFFF71CFE4846FDF7C2F882B2C0
:1032900040F27850C2F2000049466423FEF70AFF6C
:1032A0004FF4FA70FDF774FD3CE700BF4D41583311
:1032B000303130302054455354000000486561726D
:1032C000743A202533642042504D000053704F3231
:1032D000203A2025332E3166202525005FEA400C58
:1032E00008BF91F0000F4FEA8C234FEAC12243EA56
:1032F00051514FEA1C5018BF00F5F0404FEA300022
:1033000018BF41F000415FEA6C5C00F02980BCF11D
:10331000FF3F08BF40F080407047130C06BF120407
:103320004FF0100C4FF0000C130E04BF12020CF102
:10333000080C130F04BF12010CF1040C930F04BF0F
:1033400092000CF1020CD30F04BF52000CF1010CDF
:1033500011464FF00002A0F11F00A0EB0C007047D7
:1033600011F0004F08BF704731F000413FF4D5AF76
:103370000B0C06BF09044FF0100C4FF0000C0B0EA5
:1033800004BF09020CF1080C0B0F04BF09010CF17A
:10339000040C8B0F04BF89000CF1020CCB0F04BF8F
:1033A00049000CF1010CCCF1200322FA03F341EAAD
:1033B000030102FA0CF2A0EB0C0000F101007047CF
:1033C00023F07F4720F07F4C80EA030000F00040AC
:1033D000ACEB070303F57C5303F1FF032DE98049B0
:1033E00009B44FEA144324EA03484FEA154B25EA8F
:1033F0000B4E0FF2042606EB13273E7803FB0667FD
:10340000C7F5000707FB06F64FEAD64606F10206A7
:103410004FEA543707FB066CCCF1005C4FEA1C47BF
:103420002CEA074C0CFB06F507FB06F404EB1546EB
:103430004FEA961649085FEA320234BF00204FF087
:1034400000404FEAD13706FB07FC4FEA1C4C0CFB4F
:103450000BF7D21B03FB0CF761EB07010CFB0EF71C
:10346000B0EB074072EB17420CFB08F734BFA2EB3E
:103470000742B2EB074261EB17414FEA0C444FEAB7
:10348000910706FB07FC4FEA1C4C0CFB0BF7B0EB5B
:10349000C74072EB573203FB0CF734BFA2EBC742B5
:1034A000B2EBC74261EB57310CFB0EF7B0EBC70034
:1034B00072EB57720CFB08F734BFA2EBC702B2EBFA
:1034C000C70261EB57714FEA816141EA92114FEAFD
:1034D000826242EA90124FEA806004EBCC04039FC0
:1034E0004FEAD13706FB07FC4FEA1C4C0CFB0BF7ED
:1034F000D21B03FB0CF761EB07010CFB0EF7B0EBE3
:10350000074072EB17420CFB08F734BFA2EB0742EF
:10351000B2EB074261EB17414FEA8C5504EB9C2458
:103520004FEA910706FB07FC4FEA1C4C0CFB0BF71C
:10353000B0EBC74072EB573203FB0CF734BFA2EB82
:10354000C742B2EBC74261EB57310CFB0EF7B0EB51
:10355000C70072EB57720CFB08F734BFA2EBC7022F
:10356000B2EBC70261EB57714FEA816141EA9211F8
:103570004FEA826242EA90124FEA806015EB4C25D6
:1035800044F100044FEAD13706FB07FC4FEA1C4C1C
:103590000CFB0BF7D21B03FB0CF761EB07010CFBD9
:1035A0000EF7B0EB074072EB17420CFB08F734BF85
:1035B000A2EB0742B2EB074261EB17414FEA8131C0
:1035C00041EA92414FEA823242EA90424FEA803029
:1035D0004FEA0C7615EB1C1544F1000448EA03434E
:1035E0004EEA0B484FF0000EB2EB080C71EB0307EC
:1035F00024BF624639464EEB0E0E4FF0000B00180A
:10360000524149414BEB0B0BB2EB080C71EB03073A
:103610007BF1000B24BF624639464EEB0E0E4FF095
:10362000000B0018524149414BEB0B0BB2EB080C5D
:1036300071EB03077BF1000B24BF624639464EEB6A
:103640000E0E51EA020718BF46F0010616EB0E7681
:1036500055F1000254F1000103D5BDE88901BDE830
:103660000088BDE88901BDE80048B619524141EB28
:103670000101A3F10103704780807F7E7D7C7B7A0E
:103680007978777676757473727171706F6E6E6D0E
:103690006C6C6B6A6A6968686766666564646363B4
:1036A00062616160605F5F5E5E5D5D5C5C5B5B5A3A
:1036B0005A595958585757565655555554545353A7
:1036C00052525251515050504F4F4F4E4E4D4D4D02
:1036D0004C4C4C4B4B4B4A4A4A494949484848474D
:1036E000474747464646454545444444444343438B
:1036F00043424242424141419C46002B30D4770034
:103700002BD04FEA37071CB503B44FF010004FF031
:103710001001BAF1000F06D0BCF1000FDCBF40F081
:10372000080040F008014FF000000FBCBDE8104059
:103730000BF1010BBBF1010F08BF5FEA170722BFB6
:1037400012F1010211F101014FF0004143F10003B8
:1037500000F0004043EA00007047F9D35708D0E773
:1037600046EA06464FEA164613F1400F1FDD13F1F5
:10377000200FDFBF16430A46002120335B42BED034
:10378000C3F1200746EA06464FEA164602FA07F753
:1037900046EA070622FA03F2C3F1200701FA07F707
:1037A00042EA070221FA03F14FF00003A7E746EAD5
:1037B000020646EA06464FEA164646EA0106BCBF3E
:1037C00046EA0646360C4FF000034FF000024FF079
:1037D000000194E72DE9804C70B49A46934691E835
:1037E000380007C831EA400C48BF34EA430C03D51F
:1037F000FFF7E6FDFFF780FFF0BCBDE8008C2DE988
:10380000804C70B49A46934691E8380007C810F08F
:10381000804F08BF13F0804F03D100F005F8FFF789
:103820006BFFF0BCBDE8008C20F07F4723F07F4C9D
:1038300080EA030000F0004007EB0C03A3F57C5383
:10384000A3F1FE0392F0000F00F0B38095F0000F9B
:1038500000F077802DE901494FEA114021EA004844
:103860004FEA144624EA064700FB06FC08FB06F66E
:1038700007FB08F818EB06484CEB164C00FB07F763
:1038800018EB07484CEB17404FEA124B22EA0B4E5D
:103890004FEA154625EA06470BFB06FC0EFB06F62B
:1038A00007FB0EFE1EEB064E4CEB164C0BFB07F710
:1038B0001EEB074E4CEB174B18EB0B0840F10000CA
:1038C00018EB0E0B58EB000840F100008F1A4FF078
:1038D00000014FF000063CBFC943661B14BFB5EBA7
:1038E000040C00213CBFC943F61B4FEA174427EAEA
:1038F00004454FEA1C472CEA074C04FB076205FB12
:1039000007F70CFB05F616EB074642EB174204FBE4
:103910000CFC16EB0C4642EB1C421BEB060658EB6C
:10392000020241414EEA8E0E46EA9E0601D5BDE8EE
:103930000189B619524141EB0101A3F10103BDE830
:1039400001894FEA144524EA05464FEA114721EA66
:10395000074C05FB07F406FB07F70CFB06F111EB20
:10396000074144EB174405FB0CFC11EB0C4144EB05
:103970001C444FEA124722EA074C05FB07F206FBFC
:1039800007F70CFB06F616EB074642EB174205FB62
:103990000CFC16EB0C4642EB1C456A1854F1000176
:1039A00048BF7047B619524141EB0101A3F1010331
:1039B000704795F0000F37D04FEA114221EA0246D6
:1039C0004FEA144724EA074C02FB07F106FB07F70E
:1039D0000CFB06F414EB074441EB174102FB0CFC13
:1039E00014EB0C4441EB1C414FEA154725EA074C08
:1039F00002FB07F506FB07F70CFB06F616EB07467E
:103A000045EB174502FB0CFC16EB0C4645EB1C4244
:103A1000121951F1000148BF7047B619524141EBEC
:103A20000101A3F1010370474FEA144524EA05465A
:103A30004FEA114721EA074C05FB07F106FB07F7A0
:103A40000CFB06F212EB074241EB174105FB0CFCA5
:103A500012EB0C4251EB1C414FF0000648BF70477F
:103A6000921841EB0101A3F101037047490050EAAC
:103A7000C12018BF04204A0D18BF40F0010040F2D9
:103A8000FF72B2EB515F08BF40F00200012808BF8F
:103A90000520704730380A2801D2012070470020E5
:103AA0007047000010B500290AD00878002807D018
:103AB00005487844FDF720F9002801D0002010BD0A
:103AC0000248784410BD0000BA0D0000B20D00009D
:103AD0000808A0F500114FEA3101704743004FEA92
:103AE000D30C4FEA3C0C43401FBF40070CF1605120
:103AF00013F0FE4F70471CF0006F03D10CF0004133
:103B0000002070470CF0004343EA507040EACC00BC
:103B100010B500F038FA00BF000000924FEA000133
:103B2000FFF7D6BF4FF00041A1F500214FF0000094
:103B3000704710B500F0F6F80CBF0120002010BD52
:103B400010B500F0EFF814BF0120002010BD10B533
:103B500000F030F98CBF0120002010BD10B500F03E
:103B600029F92CBF0120002010BD10B500F056F936
:103B700094BF0120002010BD10B500F04FF934BFF4
:103B80000120002010BD401058BFC0F14040491036
:103B900058BFC1F140418142EFF3008070470000FF
:103BA0004FF47F0C1CEAD0121EBF1CEAD11392EA1C
:103BB0000C0F93EA0C0F00F0858090EA010F48BFCC
:103BC00042F4807240F4000C41F400002CF07F417C
:103BD00020F07F4000B5A2EB030281420FF2081CE7
:103BE000ACEB504E9EF800E0C0F100004FEA4E0EE4
:103BF00000FB0EFC38BF49004FEA2C1C0CFB0EF3F7
:103C00004FEACE1E0EEB635E4FEA112C0EFB0CFC4E
:103C10004FEAC1214FEA1C5300FB031102F5FA02DF
:103C20004FEA112C0EFB0CFC4FEA01314FEADC4C41
:103C300000FB0C1142EB2242C14228BF09184CEB99
:103C400003335DF804EB10EB410143EBC250B2F5D6
:103C50007C0F38BF704729D512F0F00F1CBF00F160
:103C6000C04000F0004070470081828384858687D1
:103C700088898B8C8D8E8F919293959697999A9C2B
:103C80009D9FA0A2A3A5A7A8AAACAEB0B2B3B5B79A
:103C9000B9BCBEC0C2C5C7C9CCCED1D4D7D9DCDF70
:103CA000E2E6E9ECF0F3F7FAFE0000004FEA400C20
:103CB0000CF1807CBCF17E4F28BF7047B0F1C04052
:103CC00000F0A7B90CEAD11390EA010F48BF42F403
:103CD0008072624538BF634507D213F47F0F16D058
:103CE00080EA010000F00040704710B500F04BF989
:103CF000097EFC3E00F005B880EA010000F00040BB
:103D0000704780EA010000F0004000F082B912F430
:103D10007F0F04BF0248704780EA010000F079B9C4
:103D20000000C07F50EA010C00F113801CF5000F69
:103D300058BFBCF5000F01D48842704707D710F573
:103D4000000F58BF11F5000F15D488427047894203
:103D500070471CF5000F04D5BCF5000FF7D5814264
:103D600070474FF0807C1CEB400F38BF1CEB410FBD
:103D700001D28142704710B500F005F99224490044
:103D80004FF000504FF08051FFF7FDBEB0FA80F3C6
:103D900010FA03F2C3F19D030AD0D90501EB1220FA
:103DA000530638BF704700F1010008BF20F0010042
:103DB0007047000050EA010C00F113801CF5000F61
:103DC00058BFBCF5000F01D48842704707D710F5E3
:103DD000000F58BF11F5000F15D488427047894273
:103DE00070471CF5000F04D5BCF5000FF7D58142D4
:103DF00070474FF0807C1CEB400F38BF1CEB410F2D
:103E000001D28142704710B500F0BDF892244900FC
:103E10004FF080504FF00051FFF7B5BE50EA010C53
:103E200000F113801CF5000F58BFBCF5000F01D442
:103E30008842704707D710F5000F58BF11F5000FE3
:103E400015D488427047894270471CF5000F04D58D
:103E5000BCF5000FF7D5814270474FF0807C1CEB1A
:103E6000400F38BF1CEB410F01D28142704710B5A3
:103E700000F089F8922449004FF000504FF0805133
:103E8000FFF781BE4FF47F0C1CEAD0121EBF1CEA64
:103E9000D11392EA0C0F93EA0C0F00F0478090EADE
:103EA000010F48BF42F480724FF0004C4CEA0020F2
:103EB0004CEA012102EB0302A0FB0113A2F5000270
:103EC000002918BF43F001035B0028BF4FEA33030A
:103ED00042EB22425FEA132C4CEBC2502EBFBCEBEC
:103EE000436FB2F57C0F70474FEA036CBCF1004F93
:103EF00008BF20F00100B2F57C0F38BF70470BD52A
:103F000082F0FF0212F5803FC8BF704700F1C04049
:103F1000D8BF00F00040704700F5000C5FEA4C0C81
:103F200048BF7047B0F1C04000F073B80CEAD1133D
:103F300090EA010F48BF42F48072624538BF634582
:103F400004D280EA010000F00040704710B500F094
:103F50001AF800BF8900013E00F007B800F009B868
:103F60005FEA410C5FEA1C6C08D080EA010000F0B7
:103F700050B85FEA400C5FEA1C6CF6D14FF000408D
:103F8000A0F5800070470EF1020E2EF0030E5EF8D1
:103F9000044B244204D44FEA4102B2F17F4F11D8BE
:103FA0004FEA4003B3F17F4F0CD80ED14FEAD07CDB
:103FB0000CEB4C0C0CF1020CB2F17F4F08BF4CEB38
:103FC000D17C04E04FF0080C01E04FEAD17C0CEB0F
:103FD0004C0324FA03F404F00704B4F1040C06D2F1
:103FE0000EEB840CBDE810404CF0010C6047DFE89C
:103FF0000CF0070802024FF00040A0F5800010BD51
:104000000846420018BFD2F1807288BF00F000401D
:1040100010BDFF2141EAD050C0057047FCF7B8BB86
:1040200002400000000000A0000000000540000069
:10403000000000C8000000000C4000000000409C90
:1040400000000000194000000020BCBE000000007D
:1040500034400000BFC91B8E00000004B5400000C2
:10406000504BCFD06607E2CF010000006C4100004A
:104070003E8251AADFEEA73401000000D9420000C1
:10408000DCB5A0E23A301F97FFFFFFFFB445000008
:10409000FD25A0C8E9A3C14FFFFFFFFFFF3F0000C0
:1040A0000000008000000000FF3F000000000080D2
:1040B00000000000000000000000000001020304F6
:1040C00006070809000000000102030400000000C8
:1040D00000000000000000000000000000000000E0
:1040E0000010001000100010001000100000001060
:1040F0000000000000280028002800000000000048
:10410000000000000000000000240024007C0024C7
:104110000048007C004800480000000000380054BF
:104120000050003800140054005400380010000003
:1041300000200054005800300028005400140008EB
:104140000000000000100028002800100034004883
:1041500000480034000000000010001000100000B3
:104160000000000000000000000000000008001037
:104170000020002000200020002000200010000867
:1041800000200010000800080008000800080008CF
:10419000001000200010003800100028000000006F
:1041A00000000000000000000000000000100010EF
:1041B000007C001000100000000000000000000063
:1041C00000000000000000000000001000100010BF
:1041D00000000000000000000000003800000000A7
:1041E00000000000000000000000000000000000CF
:1041F000000000100000000000080008001000107F
:1042000000100010002000200000000000380044D2
:104210000044005400440044004400380000000002
:1042200000100030005000100010001000100010AE
:1042300000000000003800440044000400080010A2
:104240000020007C0000000000380044000400183A
:1042500000040004004400380000000000080018BA
:10426000002800280048007C00080008000000002A
:10427000007C004000400078000400040044003846
:104280000000000000380044004000780044004472
:104290000044003800000000007C0004000800100A
:1042A0000010002000200020000000000038004422
:1042B000004400380044004400440038000000007E
:1042C0000038004400440044003C0004004400382E
:1042D00000000000000000000010000000000000CE
:1042E00000000010000000000000000000000010AE
:1042F000000000000000001000100010000000008E
:10430000000C003000400030000C000000000000F5
:10431000000000000000007C0000007C00000000A5
:1043200000000000000000000060001800040018F9
:104330000060000000000000003800440004000895
:1043400000100010000000100000000000380044C1
:10435000004C0054005C00400040003800000000A9
:1043600000100028002800280028007C0044004499
:10437000000000000078004400440078004400443D
:104380000044007800000000003800440040004075
:104390000040004000440038000000000070004869
:1043A0000044004400440044004800700000000045
:1043B000007C00400040007C004000400040007C49
:1043C00000000000007C00400040007800400040F9
:1043D0000040004000000000003800440040004061
:1043E000005C004400440038000000000044004429
:1043F0000044007C004400440044004400000000ED
:1044000000380010001000100010001000100038DC
:104410000000000000040004000400040004000484
:1044200000440038000000000044004800500060D4
:1044300000500048004800440000000000400040D8
:1044400000400040004000400040007C00000000B0
:104450000044006C006C00540044004400440044DC
:104460000000000000440064006400540054004C4C
:10447000004C0044000000000038004400440044A8
:10448000004400440044003800000000007800446C
:10449000004400440078004000400040000000005C
:1044A00000380044004400440044004400540038F4
:1044B00000040000007800440044004400780048F4
:1044C0000048004400000000003800440040003074
:1044D000000800040044003800000000007C0010C8
:1044E000001000100010001000100010000000006C
:1044F00000440044004400440044004400440038A8
:104500000000000000440044004400280028002867
:10451000001000100000000000440044005400544B
:104520000054006C0028002800000000004400280F
:10453000002800100010002800280044000000009F
:104540000044004400280028001000100010001053
:1045500000000000007C0004000800100010002093
:104560000040007C00000000001800100010001047
:104570000010001000100010001000180020002093
:1045800000100010001000100008000800000000DB
:10459000003000100010001000100010001000107B
:1045A0000010003000100028002800440000000027
:1045B00000000000000000000000000000000000FB
:1045C0000000000000000000000000FE00200010BD
:1045D00000000000000000000000000000000000DB
:1045E0000000000000380044003C0044004C00344F
:1045F00000000000004000400058006400440044F7
:104600000064005800000000000000000038004472
:104610000040004000440038000000000004000496
:104620000034004C00440044004C00340000000002
:104630000000000000380044007C004000440038C6
:1046400000000000000C0010007C001000100010A2
:104650000010001000000000000000000034004CBA
:1046600000440044004C0034000400780040004046
:10467000005800640044004400440044000000006E
:10468000001000000070001000100010001000105A
:10469000000000000010000000700010001000106A
:1046A00000100010001000E00040004000480050E2
:1046B000006000500048004400000000007000103E
:1046C000001000100010001000100010000000008A
:1046D00000000000007800540054005400540054BE
:1046E0000000000000000000005800640044004486
:1046F00000440044000000000000000000380044B6
:1047000000440044004400380000000000000000A5
:104710000058006400440044006400580040004019
:10472000000000000034004C00440044004C003401
:104730000004000400000000005800640040004035
:10474000004000400000000000000000003800446D
:104750000030000800440038000000000020002065
:104760000078002000200020002000180000000039
:10477000000000000044004400440044004C0034A9
:104780000000000000000000004400440028002851
:104790000028001000000000000000000054005439
:1047A0000054006C002800280000000000000000F9
:1047B0000044002800100010002800440000000001
:1047C00000000000004400440028002800100010F1
:1047D0000010006000000000007C000800100020B5
:1047E0000040007C000000000018001000100010C5
:1047F0000020002000100010001000180010001011
:104800000010001000100010001000100010001028
:104810000030001000100010000800080010001008
:10482000001000300000000000000074004C000088
:10483000000000000000000001020203040506075A
:1048400008090A0B0C0D0E0F101000008848000814
:10485000000000201800000050010008A0480008D7
:1048600018000020B00B0000700100081C000000C0
:1048700043000000F8FFFFFF0C0000000E000000E6
:104880000F0000002E0000000100000010000000DA
:10489000070A0000CC40000800127A000000000067
:04000005080000ED02
:00000001FF
